{
  "_format": "hh-sol-artifact-1",
  "contractName": "DataStorage",
  "sourceName": "contracts/DataStorage.sol",
  "abi": [
    {
      "inputs": [],
      "stateMutability": "nonpayable",
      "type": "constructor"
    },
    {
      "anonymous": false,
      "inputs": [
        {
          "indexed": true,
          "internalType": "bytes32",
          "name": "dataId",
          "type": "bytes32"
        },
        {
          "indexed": true,
          "internalType": "address",
          "name": "owner",
          "type": "address"
        }
      ],
      "name": "DataSubmitted",
      "type": "event"
    },
    {
      "inputs": [
        {
          "internalType": "bytes32",
          "name": "dataId",
          "type": "bytes32"
        }
      ],
      "name": "getData",
      "outputs": [
        {
          "components": [
            {
              "internalType": "bytes32",
              "name": "dataHash",
              "type": "bytes32"
            },
            {
              "internalType": "string",
              "name": "geoHash",
              "type": "string"
            },
            {
              "internalType": "uint256",
              "name": "timestamp",
              "type": "uint256"
            }
          ],
          "internalType": "struct DataStorage.SensorData",
          "name": "",
          "type": "tuple"
        }
      ],
      "stateMutability": "view",
      "type": "function"
    },
    {
      "inputs": [
        {
          "internalType": "bytes32",
          "name": "dataId",
          "type": "bytes32"
        },
        {
          "internalType": "bytes32",
          "name": "dataHash",
          "type": "bytes32"
        },
        {
          "internalType": "string",
          "name": "geoHash",
          "type": "string"
        }
      ],
      "name": "submitData",
      "outputs": [],
      "stateMutability": "nonpayable",
      "type": "function"
    }
  ],
  "bytecode": "0x608060405234801561001057600080fd5b5060018060003373ffffffffffffffffffffffffffffffffffffffff1673ffffffffffffffffffffffffffffffffffffffff16815260200190815260200160002060006101000a81548160ff0219169083151502179055506107b8806100776000396000f3fe608060405234801561001057600080fd5b50600436106100365760003560e01c806354f6127f1461003b578063e922f0b71461006b575b600080fd5b610055600480360381019061005091906103a0565b610087565b60405161006291906104de565b60405180910390f35b61008560048036038101906100809190610635565b610159565b005b61008f61028f565b600080838152602001908152602001600020604051806060016040529081600082015481526020016001820180546100c6906106d3565b80601f01602080910402602001604051908101604052809291908181526020018280546100f2906106d3565b801561013f5780601f106101145761010080835404028352916020019161013f565b820191906000526020600020905b81548152906001019060200180831161012257829003601f168201915b505050505081526020016002820154815250509050919050565b600160003373ffffffffffffffffffffffffffffffffffffffff1673ffffffffffffffffffffffffffffffffffffffff16815260200190815260200160002060009054906101000a900460ff166101e5576040517f08c379a00000000000000000000000000000000000000000000000000000000081526004016101dc90610762565b60405180910390fd5b6040518060600160405280838152602001828152602001428152506000808581526020019081526020016000206000820151816000015560208201518160010190805190602001906102389291906102b3565b50604082015181600201559050503373ffffffffffffffffffffffffffffffffffffffff16837fdc47ccf0acde1539da8363e5ad923c76b61a888a9bbd5bc8aa94d63e0a8c917860405160405180910390a3505050565b60405180606001604052806000801916815260200160608152602001600081525090565b8280546102bf906106d3565b90600052602060002090601f0160209004810192826102e15760008555610328565b82601f106102fa57805160ff1916838001178555610328565b82800160010185558215610328579182015b8281111561032757825182559160200191906001019061030c565b5b5090506103359190610339565b5090565b5b8082111561035257600081600090555060010161033a565b5090565b6000604051905090565b600080fd5b600080fd5b6000819050919050565b61037d8161036a565b811461038857600080fd5b50565b60008135905061039a81610374565b92915050565b6000602082840312156103b6576103b5610360565b5b60006103c48482850161038b565b91505092915050565b6103d68161036a565b82525050565b600081519050919050565b600082825260208201905092915050565b60005b838110156104165780820151818401526020810190506103fb565b83811115610425576000848401525b50505050565b6000601f19601f8301169050919050565b6000610447826103dc565b61045181856103e7565b93506104618185602086016103f8565b61046a8161042b565b840191505092915050565b6000819050919050565b61048881610475565b82525050565b60006060830160008301516104a660008601826103cd565b50602083015184820360208601526104be828261043c565b91505060408301516104d3604086018261047f565b508091505092915050565b600060208201905081810360008301526104f8818461048e565b905092915050565b600080fd5b600080fd5b7f4e487b7100000000000000000000000000000000000000000000000000000000600052604160045260246000fd5b6105428261042b565b810181811067ffffffffffffffff821117156105615761056061050a565b5b80604052505050565b6000610574610356565b90506105808282610539565b919050565b600067ffffffffffffffff8211156105a05761059f61050a565b5b6105a98261042b565b9050602081019050919050565b82818337600083830152505050565b60006105d86105d384610585565b61056a565b9050828152602081018484840111156105f4576105f3610505565b5b6105ff8482856105b6565b509392505050565b600082601f83011261061c5761061b610500565b5b813561062c8482602086016105c5565b91505092915050565b60008060006060848603121561064e5761064d610360565b5b600061065c8682870161038b565b935050602061066d8682870161038b565b925050604084013567ffffffffffffffff81111561068e5761068d610365565b5b61069a86828701610607565b9150509250925092565b7f4e487b7100000000000000000000000000000000000000000000000000000000600052602260045260246000fd5b600060028204905060018216806106eb57607f821691505b602082108114156106ff576106fe6106a4565b5b50919050565b600082825260208201905092915050565b7f4e6f742061206661726d206f776e657200000000000000000000000000000000600082015250565b600061074c601083610705565b915061075782610716565b602082019050919050565b6000602082019050818103600083015261077b8161073f565b905091905056fea26469706673582212205bc9266fb575b6d044226c132fedffec39e880d6304a43b984e06cce31be77fa64736f6c63430008090033",
  "linkReferences": {},
  "deployedLinkReferences": {}
}